:020000040800F2
:100000007806002029020008950A0008910A0008D5
:10001000930A00087F0400084D0F0008000000004C
:100020000000000000000000000000007D0D00083E
:1000300075090008000000003D0B0008670E00086D
:10004000430200084302000843020008430200087C
:10005000430200084302000843020008430200086C
:10006000430200084302000843020008430200085C
:10007000430200084302000843020008430200084C
:10008000430200084302000843020008430200083C
:10009000430200084302000843020008430200082C
:1000A000430200084302000843020008430200081C
:1000B000430200084302000843020008430200080C
:1000C00043020008430200084302000843020008FC
:1000D00043020008430200084302000843020008EC
:1000E00043020008430200084302000843020008DC
:1000F00043020008430200084302000843020008CC
:1001000043020008430200084302000843020008BB
:1001100043020008430200084302000843020008AB
:10012000B107000843020008430200084302000828
:10013000430200084302000843020008430200088B
:10014000430200084302000843020008430200087B
:10015000430200084302000843020008430200086B
:10016000430200084302000843020008430200085B
:10017000430200084302000843020008430200084B
:10018000430200084302000800F002F800F03CF8C7
:100190000AA090E8000C82448344AAF10107DA45E2
:1001A00001D100F031F8AFF2090EBAE80F0013F0F8
:1001B000010F18BFFB1A43F001031847D40D0000CC
:1001C000F40D0000103A24BF78C878C1FAD852075D
:1001D00024BF30C830C144BF04680C6070470000C1
:1001E0000023002400250026103A28BF78C1FBD840
:1001F000520728BF30C148BF0B6070471FB500F0E1
:10020000C1FE1FBD10B510BD00F031F81146FFF75B
:10021000F5FF00F09DFE00F04FF803B4FFF7F2FF8A
:1002200003BC00F057F80000094880470948004720
:10023000FEE7FEE7FEE7FEE7FEE7FEE7FEE7FEE796
:10024000FEE7FEE704480549054A064B70470000F3
:10025000F10E0008890100087800002078060020CF
:10026000780200207802002070477047704775467A
:1002700000F02CF8AE4605006946534620F0070012
:10028000854618B020B5FFF7DDFFBDE820404FF0F0
:1002900000064FF000074FF000084FF0000B21F070
:1002A0000701AC46ACE8C009ACE8C009ACE8C0093D
:1002B000ACE8C0098D46704710B50446AFF3008026
:1002C0002046BDE81040FFF7A8BF00000048704777
:1002D0001800002001491820ABBEFEE726000200EE
:1002E0007047002904D0816841F0010181607047A6
:1002F000816821F0010181607047000010B5074C52
:10030000226807490A40D0E900131943D0E90230B6
:10031000034319431143216010BD00000423014031
:10032000E030FCFF10B58AB00024009401940294E0
:1003300003946846FFF7E2FF04948DF815408DF8AA
:1003400014400894079401208DF824000C4C04A953
:10035000204600F02FF8002301221946204600F025
:100360004FF80121204600F019F80121204600F045
:1003700009F801212046FFF7B4FF0AB010BD0000C4
:1003800000200140002904D0816841F4807181601F
:100390007047816821F4807181607047002904D022
:1003A000816841F4007181607047816821F40071B7
:1003B0008160704730B542680F4B1A400C790B686A
:1003C00042EA04221343436083680C4A1340D1E994
:1003D000034222434D798C6844EA450422431A4380
:1003E0008260C26A22F47002097D491EC9B242EAE3
:1003F0000151C16230BD0000FFFEFFFCFDF7FFC0F0
:1004000070B5072609290AD9C568A1F10A0404EBC9
:100410004404A640B543A3401D43C56007E00569F9
:1004200001EB4104A640B543A3401D4305611F23D2
:10043000072A09D2446B521E02EB820293409C436E
:1004400091400C43446370BD0D2A09D2046BD21F46
:1004500002EB820293409C4391400C43046370BDC5
:10046000C46A0D3A02EB820293409C4391400C43D4
:10047000C46270BD816841F0804181607047FEE7D1
:1004800010B586B00190002002908DF80C008DF818
:100490000D008DF80E1001A90C18135CE372401CBE
:1004A000C0B20828F8D901A9024800F025F906B021
:1004B00010BD000000640040F0B5827A0121914037
:1004C000304C226842F0010222602E4D1C352A6811
:1004D0008A432A602B4A067B0C322B4B002E14D108
:1004E00016688E4316604688C78846EA0746877AAC
:1004F00003EBC707C7F840660688878846EA0746C1
:10050000877A03EBC707C7F84466067B012E14D130
:1005100016680E4316604288068842EA0642867ACA
:1005200003EBC606C6F84026C288868842EA064221
:10053000867A03EBC603C3F84426124AC37A121D17
:100540003BB113680B4313600E4A0389143223B185
:1005500006E013688B431360F6E713688B43136060
:100560000389012B02D113680B431360407B0128E0
:1005700002D1286808432860206820F0010020602C
:10058000F0BD000000660040006000401FB5002084
:100590008DF80B0001218DF80C10ADF808008DF8D6
:1005A0000D108DF80A00ADF80000ADF80200ADF8AE
:1005B0000400ADF806006846FFF77EFF1FBD10B5CA
:1005C0000022036823F002030360036843F0010381
:1005D00003604FF6FF7300E0521C4468E40701D14A
:1005E0009A42F9D14268D2073ED08A79012A3DD099
:1005F000026822F080020260CA79012A3BD00268B8
:1006000022F0400202600A7A012A39D0026822F000
:10061000200202604A7A012A37D0026822F01002D2
:1006200002608A7A012A35D0026822F0080202604C
:10063000CA7A012A33D0026822F0040202608A7862
:10064000CC78920742EA04620C7942EA04424C797F
:10065000098842EA0452491E0A43C261016821F036
:1006600001010160002120E0002010BD026842F07D
:1006700080020260C0E7026842F040020260C2E706
:10068000026842F020020260C4E7026842F01002F1
:100690000260C6E7026842F008020260C8E702682A
:1006A00042F004020260CAE7491C4268D20701D046
:1006B0009942F9D14068C00701D0002010BD012047
:1006C00010BD00000EB55420ADF8000001218DF8DA
:1006D000021000208DF803008DF804108DF805102D
:1006E0008DF806008DF80700029069460148FFF773
:1006F00066FF0EBD0064004030B5024600209368DE
:100700005B010AD49068000101D5012005E09068E2
:10071000C00001D5022000E0042004283BD002EBF9
:100720000012D2F8803103F00103C2F880310B7A55
:1007300093B3D2F880414D681C434B7A43EAC5031A
:100740001C43C2F880418B7A03F00F038B7202F5D1
:10075000C072536823F00F03536053688C7A2343AD
:100760005360CB7A8C7B0D7B43EA04634C7B24047F
:1007700044EA052423439360CB7B8C7C43EA0463E7
:100780004C7C097C240444EA01210B43D3601168AA
:1007900041F00101116030BDFFE7D2F880314C7AA1
:1007A00023430C8843EA4453C2F88031CBE700006E
:1007B00038B50D4C0D4D2146284600F06DF860B15E
:1007C0000B480288100A8DF800008DF801206A4657
:1007D000022140F22310FFF753FE21462846BDE8D0
:1007E000384000F007B8000020800010106402407C
:1007F00000000020074A904201D2074801E0054866
:100800001038064A8B0001EA020101D5C160704729
:100810008160704710640240006002407D0F7D0FD0
:10082000002904D0016841F00101016070470168AE
:1008300021F001010160704710B590B000200190D7
:1008400012490291124903910490012105910690E9
:100850000790CA0208924A0309920A020A924A04BD
:100860000B920C900D910E900F900A4C01A920460E
:1008700000F056F801221021204600F037F801213F
:100880002046FFF7CDFF10B010BD00004C20014006
:10089000000000201064024030B500240F4A90424E
:1008A00001D20F4A01E00D4A103A0E4B194205D011
:1008B0001E2303EAD12503682B4002E0406900F0C3
:1008C0008003880001D5506800E01068064A104097
:1008D000084201D003B10124204630BD106402401B
:1008E000006002403C0F3C0F7D0F7D0F0B0609D5C9
:1008F00022B1436943F08003436103E0436923F07D
:1009000080034361802905D001F01E011AB10268FD
:100910000A430260704702688A4302607047000021
:1009200030B50368124A1340CC680A682243D1E903
:1009300005452C432243CC6922430C6A22434C6A6E
:1009400022438C6A22434C6B22438C6B22431A4312
:100950000260426922F00703D1E90B2422431A43C3
:1009600042610A6942604A6882608968C16030BD3C
:100970003F801CF0704700002DE9FC414FF400401F
:10098000009001268DF8046000248DF806400325B0
:100990008DF805508DF80740144F6946384600F031
:1009A00029F800968DF804508DF805508DF8074011
:1009B00069460F4800F01EF809220121384600F070
:1009C00057F809220021384600F052F8009502211C
:1009D0008DF804108DF805108DF806408DF807602D
:1009E0006946384600F006F8BDE8FC81000C02407C
:1009F000000002402DE9F041002201274FF0030CD6
:100A000007FA02F50B682B40AB422CD10668530065
:100A10000CFA03F4A64306600E79D0F800809E40DD
:100A200046EA080606600E79012E01D0022E12D188
:100A30008668A64386604E79D0F808809E4046EAD4
:100A4000080686604668AE43466045688E799640E3
:100A5000B6B235434560C568A543C560CC799C40B6
:100A6000C3681C43C460521C102AC9D3BDE8F0817E
:100A700010B54B07DB0E9A40C90800EB8100016AF4
:100A80000F249C40A1430162016A1143016210BD21
:100A9000FEE7FEE7704708B54FF4E06000F044F869
:100AA00038208DF8000000208DF8010001208DF81D
:100AB00002008DF80300684600F002F808BD00004F
:100AC00030B50F23C27801250178002A1FD0154ABE
:100AD000126802F4E062C2F5E062C2F30722C2F1DA
:100AE0000404D3404278A24084781C40144322017D
:100AF00001F1E02181F80024007800F01F018D4011
:100B00004009800000F1E020C0F8005130BD01F044
:100B10001F0085404809800000F1E020C0F88051A6
:100B200030BD00000CED00E00249084302490860B6
:100B3000704700000000FA050CED00E0704700006F
:100B4000054A002903D011680143116070471168FC
:100B5000814311607047000030380240054A002987
:100B600003D011680143116070471168814311601F
:100B70007047000040380240054A002903D0116840
:100B80000143116070471168814311607047000094
:100B90004438024008B500F03DF8002000F09AF813
:100BA000012000F08FF800F0D1F80128FBD10420DB
:100BB000009002234FF4A8720821000500F0AAF863
:100BC000012000F0A1F8392000F04EF80128FAD1F8
:100BD000022000F0B1F8002000F06AF84FF4A050B5
:100BE00000F07EF84FF4805000F084F800F058F8E0
:100BF0000828FBD101210648FFF7A2FF0121480682
:100C0000FFF7ACFF0121BDE808400802FFF7B4BFC1
:100C1000090040001048016841F0010101600E4ADE
:100C200000210832116002680C4B1A400260031D5B
:100C30000B4A1A60084B0B4A84331A60084A103A70
:100C40001B1D1A60026822F48022026002480C30E8
:100C50000160181D0160704700380240FFFFF6EA8E
:100C600010300024003000200246002051090129E4
:100C70000BD002290DD00949096802F01F02012397
:100C800093400B4200D00120704704497439096831
:100C9000F3E70249091F0968EFE7000074380240D2
:100CA0000248006800F00C0070470000083802405D
:100CB000034A116821F0F001014311607047000000
:100CC00008380240024900220A700870704700008C
:100CD00002380240014908607047000000004742A6
:100CE000034A116821F4E05101431160704700008C
:100CF00008380240034A116821F4604141EAC0000B
:100D000010607047083802400149086670470000CB
:100D10000000474210B5029C41EA82114FF0FF32B9
:100D200002EB530241EA0241014341EA04600149F6
:100D3000086010BD04380240034A116821F0030125
:100D400001431160704700000838024018B50020C8
:100D500000904FF4A0443120FFF786FF0099491C12
:100D600000910099A14201D00028F4D03120FFF772
:100D70007BFF08B1012018BD002018BD704700009E
:100D80000CB50022019200922749086840F4803097
:100D900008604FF4A043086800F400300090019808
:100DA000401C0190009810B901989842F3D108684E
:100DB000800302D50120009000E0009200980128F5
:100DC00031D119484030026842F080520260174821
:100DD000026842F440420260134808300268026030
:100DE000026842F400420260026842F4A0520260CB
:100DF000021F0F4B13600A6842F080720A600A6893
:100E00009201FCD50B4A40F205711160016821F096
:100E100003010160016841F0020101600168C1F352
:100E200081010229FAD10CBD003802400070004057
:100E300008544007003C02404FF0E0200449416163
:100E400000218161052101610169C903FCD5704759
:100E50003F90020000B5024601E0FFF7EDFF521E91
:100E600092B2FAD200BD704770B51D4E306800F0E6
:100E70000C001C4B1C4900280FD01C4D04280ED020
:100E800008280ED00B603068174AC0F30310121DFB
:100E9000105C0A68C2400A6070BD0B60F3E70D6029
:100EA000F1E70F4A121F1068C0F38054106800F079
:100EB0003F0034B1B5FBF0F01368C3F38813584317
:100EC00005E0B3FBF0F01368C3F3881358431268CE
:100ED000C2F30142521C5200B0FBF2F00860D2E7AC
:100EE000083802400024F4000400002040787D010E
:100EF00010B51248016841F47001016010480168A2
:100F000041F0010101600E4A0021083211600268BF
:100F10000C4B1A400260031D0B4A1A60026822F44F
:100F20008022026006480C300160FFF729FF034968
:100F30004FF000608039086010BD000088ED00E0CF
:100F400000380240FFFFF6FE10300024FEE70000EC
:100F5000FFF78AFFFFF71EFEFFF70EFDFFF76CFCA1
:100F6000FFF7E0F9FFF797FDFFF7ACFBFFF70EFB8C
:100F7000034C2046FFF77EFAC820FFF76BFFF8E727
:100F8000002001404FF04070E1EE100A7047000071
:100F9000B00F00080000002018000000C401000885
:100FA000C80F00081800002060060000E0010008DB
:100FB00000000000007A030A0000000000000000AA
:080FC000010203040607080901
:040000050800018965
:00000001FF
