:020000040800F2
:1000000090060020B5010008B9060008B1060008F6
:10001000B506000871020008B90C000800000000D5
:100020000000000000000000000000005D09000862
:100030006D05000800000000310700086109000894
:10004000CF010008CF010008CF010008CF01000850
:10005000CF010008CF010008CF010008CF01000840
:10006000CF010008CF010008CF010008CF01000830
:10007000CF010008CF010008CF010008CF01000820
:10008000CF010008CF010008CF010008CF01000810
:10009000410C0008CF010008CF010008CF01000883
:1000A000CF010008CF010008CF010008CF010008F0
:1000B000CF010008CF010008CF010008CF010008E0
:1000C000CF010008CF010008CF010008CF010008D0
:1000D000CF010008CF010008CF010008CF010008C0
:1000E000CF010008CF010008CF01000800F002F89E
:1000F00000F050F814A696E8000CB244B344DA4578
:1001000001D100F047F8BAE80F000FA696E83000DA
:10011000A5EB040504EB0607AAEB0704A7F101070A
:100120004FEA15154FEA3414A4F10104AC4201D38F
:1001300000F030F813F0010F18BFFB1A43F0010371
:1001400000F001F8DBE71847A00C0000C00C00002D
:10015000103A24BF78C878C1FAD8520724BF30C8F3
:1001600030C144BF04680C60704700007047000055
:100170000023002400250026103A28BF78C1FBD8B0
:10018000520728BF30C148BF0B6070471FB51FBD65
:1001900010B510BD00F031F81146FFF7F7FF00F081
:1001A0008DFD00F04FF803B4FFF7F2FF03BC00F041
:1001B00057F800000948804709480047FEE7FEE776
:1001C000FEE7FEE7FEE7FEE7FEE7FEE7FEE7FEE707
:1001D00004480549054A064B70470000C509000858
:1001E000ED00000890000020900600209002002002
:1001F00090020020704770477047754600F02CF859
:10020000AE4605006946534620F00700854618B003
:1002100020B5FFF7DDFFBDE820404FF000064FF0AE
:1002200000074FF000084FF0000BAC46ACE8C009E7
:10023000ACE8C009ACE8C009ACE8C00921F007018E
:100240008D46704710B50446AFF300802046BDE8E8
:100250001040FFF7A8BF00000048704708000020CA
:1002600001491820ABBEFEE72600020070470000DF
:10027000FEE70000B1F5007F1CDA4A1E1F2A31D8C4
:100280000FF20401DFE802F0103333393333333C2B
:10029000333333333333333333333333333333332E
:1002A000333333333333333F40F20111C0F20101B2
:1002B00081607047B1F5004F09DAB1F5007F19D0C0
:1002C000B1F5806F16D0B1F5006F11D00FE00FD0EF
:1002D000B1F5803F1AD0B1F5003F18BF704710212B
:1002E00041607047402914D0B1F5807F02D070473B
:1002F000002181610421416070470821C16070477D
:100300001021C160704708210161704708214160D8
:1003100070471021016170471022002908BF0C228C
:10032000815841F02001815070470000B0B546F27D
:100330000061C4F2000190F80AE0037B0A6801241E
:1003400042F001020A60CA6904FA0EF56FEA050C70
:10035000AA43012BCA610DD0F3B9CA6802EA0C02A4
:10036000CA60C288438843EA024201EBCE031A64A2
:1003700003460AE0CA682A43CA600288438843EAFF
:10038000024201EBCE031A64831D82881B8843EA74
:10039000024201EBCE035A64C27A4B68002A43EA58
:1003A000050408BF03EA0C044C600389012B04D048
:1003B0003BB94A6902EA0C0302E04A6942EA0503D2
:1003C0004B61407B012802D1C8692843C861086895
:1003D00020F001000860B0BD002A42690CBF22EA8B
:1003E000010111434161704710B502684FF0000CE4
:1003F00022F002020260026842F0010202604FF63F
:10040000FF7200BFD0F804E0013A4CF100045FEA4B
:10041000CE7301D1002CF5D14268D2074FF0000213
:1004200052D08B790468012B24F0800408BF8034FB
:100430000460CB790468012B24F0400408BF4034E9
:1004400004600B7A0468012B24F0200408BF2034D8
:1004500004604B7A0468012B24F0100408BF1034A8
:1004600004608B7A0468012B24F0080408BF083468
:100470000460CB7A0468012B24F0040408BF043420
:100480000460CC7891F802C00B79240691F805E05D
:1004900044EA8C74098844EA034343EA0E53013961
:1004A0001943C161016821F0010101604FF6FF713C
:1004B0004468013942F10003E40718BF002BF7D16B
:1004C0004068012121EA0002104610BD10B500EB82
:1004D0000114D4F8B0C11CF004031372D4F8B0E1D5
:1004E00004F5D87C19BF4FEADE0353604FEA5E5330
:1004F0001360DCF80030002903F002035372D4F8D3
:10050000B43103F00F039372D4F8B4314FEA1323DC
:10051000D374D4F8B831D372D4F8B8314FEA132376
:100520001373D4F8B8314FEA13435373D4F8B83186
:100530004FEA13639373D4F8BC31D373D4F8BC314E
:100540004FEA13231374D4F8BC314FEA13435374A6
:10055000D4F8BC314FEA136393744FF0100208BF14
:100560000C22815841F02001815010BD70470000DD
:10057000CA7802F00F0CD30644BF8B784CEA030C08
:100580002DE9F04709880B0625D082465AF8144B0E
:1005900000F1100E00254FF001094FF00F08002761
:1005A00006E000BF1E600137082F05F1040511D0D9
:1005B00009FA07F60E42F6D008FA05F324EA030317
:1005C0000CFA05F41C43282A5346EBD0482AEAD1FA
:1005D0007346E7E70460B1F5807F38BFBDE8F08778
:1005E000436800F1100E00F1140900254FF4807AE1
:1005F0004FF00F08002705E034600137082F05F1A0
:10060000040512D00AFA07F404EA0106A642F4D15E
:1006100008FA05F6B3430CFA05F63343282A4E468A
:10062000EAD0482AE9D17646E6E74360BDE8F0879C
:10063000B0B540F2040CC4F2010C0CF118031A46D8
:10064000B0F1FF3FC4BF0422C4F20102146800F4F9
:100650004012B2F5401F1FFA80FE08D1DCF80050AE
:1006600024F0706225F07064CCF8004011E0C20202
:1006700006D46FF00F0202EA50420EFA02F204E0D2
:10068000C0F30342032505FA02F224EA020242F013
:1006900070626FF00F0404EA504400290EFA04F56A
:1006A00018BF2A43B0F1FF3FC8BF63461A60B0BD10
:1006B000FEE70000FEE700007047000010B5C178BB
:1006C00000294EF20011CEF200011AD04EF60C5263
:1006D000CEF200021268072323EA12220F23C2F18E
:1006E000040C23FA02F24378847890F800E003FACD
:1006F0000CF322401A43120101EB0E0383F800238E
:1007000000E080310078012300F01F0203FA02F2BA
:10071000C0F3421041F8202010BD000040F080607E
:100720004EF60C5140F0FD70CEF2000108607047AB
:1007300070470000002941F21401C4F202010A6866
:100740000CBF22EA0000104308607047002941F204
:100750001C01C4F202010A680CBF22EA0000104327
:1007600008607047002941F21801C4F202010A68CA
:100770000CBF22EA000010430860704780B500F00B
:100780003BF84FF4803000F07FF800BF00F0CEF867
:100790000128FBD1002000F091F84FF480304FF495
:1007A000E01100F0ADF8012000F0A4F8392000F0CD
:1007B00045F80028FAD0022000F0AEF8002000F042
:1007C00059F84FF4806000F07FF8002000F086F8C0
:1007D00000F048F80828FBD10D200121FFF7C2FFE7
:1007E0000220C0F200200121FFF7B0FF012001210B
:1007F000BDE88040FFF79EBF41F20000C4F2020056
:100800000168002241F0010101604168CFF6FF025A
:100810001140416001684FF6FF72CFF6F662114059
:100820000160016821F480210160416821F4FE012A
:1008300041604FF41F01816070470000420941F29E
:100840000001012AC4F2020103D0022A14BF24319C
:100850002031096800F01F0021FA00F000F00100CB
:100860007047000041F20400C4F20200006800F08A
:100870000C00704741F20401C4F202010A6822F040
:10088000F00210430860704741F20001C4F2020117
:100890000A68B0F5803F22F480320A600A6822F4C8
:1008A00080220A6005D0B0F5802F18BF70474FF442
:1008B000A0200A6810430860704700000021C4F2BD
:1008C000422108607047000041F20401C4F20201B5
:1008D0000A6822F4E06210430860704741F20401A4
:1008E000C4F202010A6822F4605242EAC0000860C1
:1008F000704700006021C4F2422108607047000088
:1009000041F20402C4F202021368084323F47C1388
:10091000184310607047000041F20401C4F2020164
:100920000A6822F0030210430860704781B041F268
:100930000000C4F202000021009100BF0168009A8B
:1009400001320092009AB2F5A06F02D011F400318A
:10095000F4D00068C0F3404001B070477047000019
:100960007047000041F20400C4F20200016801F087
:100970000C01082941F20021C0F27A010FD102686E
:100980000368C2F38342DB0302F1020202D503686B
:100990009B0303D540F60011C0F23D01514340F2E4
:1009A0000002C2F200021160006840F6D651C0F3A6
:1009B0000310C0F60001085C116821FA00F0106015
:1009C0007047000082B041F20400C4F2020050F807
:1009D000041C002241F0010140F8041C0168CFF61C
:1009E000FF021140016050F8041C4FF6FF72CFF671
:1009F000F662114040F8041C50F8041C21F48021D8
:100A000040F8041C016821F4FE0101604FF41F014D
:100A1000416000210191009150F8041C41F48031A3
:100A200040F8041C50F8041C01F4003100910199B5
:100A300001310191009919B90199B1F5A06FF1D176
:100A400050F8041C890354BF002101210091009932
:100A5000012936D142F20001C4F202010A6842F0D3
:100A600010020A600A6822F007020A600A6842F06F
:100A700002020A600168016001680160016841F4D6
:100A800080610160016821F47C110160016841F41A
:100A9000E811016050F8041C41F0807140F8041C1A
:100AA00050F8041C8901FBD5016821F003010160A5
:100AB000016841F002010160016801F00C010829A0
:100AC000FAD14EF60850CEF200004FF000610160FE
:100AD00002B070470288002918BF012122F080026D
:100AE00042EAC111018070470288002918BF012124
:100AF00022F001021144018070470000B0F8442048
:100B0000002918BF01216FF3DF3242EAC131A0F89A
:100B100044107047B0B5028C850522F001020284B2
:100B2000038C8288B0F818C00C8923F00203234399
:100B3000A0F18044A4F5963445EA94244D88B1F898
:100B400000E0072C43EA050313D8012505FA04F455
:100B500014F0E50F0DD04C8923F00C0324F00404AD
:100B60008D8823438C892B4322F44072CD89224304
:100B70002A432CF0730545EA0E0582800583C98857
:100B800081860384B0BD0000028B22F0080211436D
:100B90000183704740F6FF33B0F800C0C4F2000391
:100BA00098420FDCB0F1804F1ED040F20043C4F2F7
:100BB0000003984218D040F60003C4F200039842A4
:100BC00012D016E040F60043C4F2000398420BD066
:100BD00043F20043C4F20103984205D042F60043B9
:100BE000C4F20103984204D14B882CF0700243EA0E
:100BF000020C41F2004240F48063C4F200029342CE
:100C000004D0CA882CF4407342EA030CA0F800C058
:100C10008A8883058285A0F18042A2F5963243EA54
:100C200092220B88072A038507D8012303FA02F2D0
:100C300012F0E50F1CBF097A0186012181827047FD
:100C400070B540F20045C4F2000540F26C0605F5AF
:100C5000C044C2F20006204600213246FFF736FCAF
:100C6000B6F80B00642140BA484340F60101C0F2D7
:100C70008001A0FB0101C80840F26801C2F2000136
:100C8000088040F28001C2F20001C8802846FFF7C8
:100C900041FF28460121FFF727FF28460121FFF7E2
:100CA0002DFF20460021FFF737FB20460221BDE83B
:100CB0007040FFF7DFBA0000FEE7000084B0FFF7E6
:100CC00051FEFFF75BFD4FF4EA100121FFF7B0FC86
:100CD000402040F20044C1F60300C4F200046D4617
:100CE000009004F582302946FFF742FC4FF4007073
:100CF000ADF80000182004F584368DF80300304666
:100D00002946FFF735FC4FF48070ADF8000004274A
:100D1000304629468DF80370FFF72AFC4FF4C06077
:100D2000FFF7FCFC1420C0F2001000906846FFF7AB
:100D3000C5FC40F267100090632001906946204690
:100D4000FFF728FF40F280016020C2F20001C0F2EC
:100D50000100086040F26800C2F20000008800252F
:100D6000C88020468F800D81FFF7D4FE20460821E1
:100D7000FFF70AFF20460121FFF7ACFE20460121C4
:100D8000FFF7B2FE20460121FFF7B8FE4820ADF87C
:100D900000000020C0F20110CDF802004FF080707A
:100DA00004F5C044CDF8060069462046ADF80A5067
:100DB000FFF71AFB204602210122FFF70DFB40F24C
:100DC0000110ADF80C0068460295CDE90055FFF71B
:100DD000ADFA00BFFEE700000000000000000102C5
:100DE0000304060708090000080E000800000020A0
:100DF0000800000050010008100E00080800002044
:100E0000880600007001000800A24A0400000000EB
:04000005080000ED02
:00000001FF
